:100000000C9462000C948A000C948A000C948A0070
:100010000C948A000C948A000C948A000C948A0038
:100020000C948A000C948A000C948A000C948A0028
:100030000C948A000C948A000C948A000C948A0018
:100040000C94FE020C948A000C948A000C948A0092
:100050000C948A000C948A000C948A000C948A00F8
:100060000C948A000C948A000000000024002700F1
:100070002A0000000000250028002B0000000000DE
:1000800023002600290004040404040404040202DA
:100090000202020203030303030301020408102007
:1000A0004080010204081020010204081020000012
:1000B0000008000201000003040700000000000027
:1000C0000000390411241FBECFEFD8E0DEBFCDBF42
:1000D00011E0A0E0B1E0EEEBF8E002C005900D9277
:1000E000A834B107D9F721E0A8E4B1E001C01D921E
:1000F000AD36B207E1F710E0C2E6D0E004C02197C8
:10010000FE010E945704C136D107C9F70E94480377
:100110000C945D040C940000AF92BF92CF92DF92DA
:10012000EF92FF920F931F93CF93DF936C017B01AC
:100130008B01040F151FEB015E01AE18BF08C0173D
:10014000D10759F06991D601ED91FC910190F081B0
:10015000E02DC6010995892B79F7C501DF91CF9173
:100160001F910F91FF90EF90DF90CF90BF90AF90D5
:100170000895833081F028F4813099F08230A9F01D
:1001800008958730A9F08830C9F08430B1F48091A7
:1001900080008F7D03C0809180008F7780938000E6
:1001A000089584B58F7784BD089584B58F7DFBCF86
:1001B0008091B0008F778093B00008958091B00057
:1001C0008F7DF9CFCF93DF93282F30E0F901E255EF
:1001D000FF4F8491F901E656FF4FD491F901EA5798
:1001E000FF4FC491CC23A1F081110E94B900EC2FE4
:1001F000F0E0EE0FFF1FE458FF4FA591B491EC9192
:10020000ED2381E090E009F480E0DF91CF91089543
:1002100080E090E0FACF1F93CF93DF93282F30E058
:10022000F901E255FF4F8491F901E656FF4FD49151
:10023000F901EA57FF4FC491CC23A9F0162F811181
:100240000E94B900EC2FF0E0EE0FFF1FEE58FF4FB9
:10025000A591B4918FB7F894EC91111108C0D09585
:10026000DE23DC938FBFDF91CF911F910895DE2BAA
:10027000F8CFCF93DF9390E0FC01E656FF4F249137
:100280008A579F4FFC0184918823D1F090E0880F1A
:10029000991FFC01E859FF4FA591B491FC01EE585C
:1002A000FF4FC591D49161110EC09FB7F8948C9106
:1002B000E22FE0958E238C932881E223E8839FBF71
:1002C000DF91CF9108958FB7F894EC91E22BEC93E6
:1002D0008FBFF6CF3FB7F89480914D0190914E01BA
:1002E000A0914F01B091500126B5A89B05C02F3FAA
:1002F00019F00196A11DB11D3FBFBA2FA92F982F4C
:100300008827BC01CD01620F711D811D911D42E046
:10031000660F771F881F991F4A95D1F70895089592
:1003200090E080E00895FC0101900020E9F731970A
:10033000AF01481B590BBC0185E591E00C948C0082
:10034000CF93DF93EC0160E08E810E940B0161E0AE
:100350008E810E940B0160E08E810E940B018BE870
:1003600091E00197F1F7DF91CF910895CF92DF925D
:10037000EF92FF920F931F93CF93DF936C017C0159
:1003800087E0E80EF11CD0E0C0E0062F10E0B801D5
:100390000C2E02C0759567950A94E2F76170F7011B
:1003A00081917F010E940B012196C430D10579F71C
:1003B000C601DF91CF911F910F91FF90EF90DF90D9
:1003C000CF900C94A001CF92DF92EF92FF920F9307
:1003D0001F93CF93DF93EC01F62E642F8C810E9444
:1003E0000B018D818F3F19F060E00E940B010F2DF2
:1003F00010E08F8584FF25C06E0187E0C80ED11CF8
:10040000F12CE12CB8010E2C02C0759567950A9469
:10041000E2F76170F60181916F010E940B01FFEF1D
:10042000EF1AFF0A88E0E816F10461F7CE01DF91C8
:10043000CF911F910F91FF90EF90DF90CF900C9490
:10044000A001B80184E0759567958A95E1F7CE0122
:100450000E94B6016F2DCE01DF91CF911F910F91B8
:10046000FF90EF90DF90CF900C94B60140E0682FA2
:1004700085E591E00C94E301CF93DF93813029F07F
:100480009091640198609093640180936801109248
:10049000690180E480936A0180E180936B0180E5CB
:1004A00080936C0161E0809159010E943901809133
:1004B0005A018F3F19F061E00E94390161E080919B
:1004C0005B010E943901C5E5D1E09E01255531400F
:1004D0008091640184FD0BC084E090E02196281790
:1004E000390744F461E08E810E943901EECF88E043
:1004F00090E0F4CF8BE39DE00197F1F760E080910D
:1005000059010E940B0160E080915B010E940B0188
:1005100080915A018F3F19F060E00E940B01809199
:10052000640184FD39C063E085E591E00E94B60175
:10053000CBE4D6E4CE010197F1F763E085E591E0E5
:100540000E94B6012197F1F763E085E591E00E94F2
:10055000B60183E592E00197F1F762E085E591E06D
:100560000E94B6018091640180620E94360284E09C
:10057000809365018CE00E94360281E00E94360281
:100580008BE39FE10197F1F782E08093660186E0BB
:10059000DF91CF910C94360280620E9436028BE488
:1005A00096E40197F1F78091640180620E9436021F
:1005B00083E592E00197F1F78091640180620E94E7
:1005C0003602D0CFCF93DF93EC01E0916801E230A7
:1005D00068F4E150F0E0EB5AFE4F848980680E9495
:1005E0003602CE01DF91CF910C949301E1E0F2CF7E
:1005F00041E00E94E30181E090E008951F920F9294
:100600000FB60F9211242F933F938F939F93AF9325
:10061000BF938091490190914A01A0914B01B09103
:100620004C013091480123E0230F2D3758F50196F6
:10063000A11DB11D209348018093490190934A0167
:10064000A0934B01B0934C0180914D0190914E01CC
:10065000A0914F01B09150010196A11DB11D809351
:100660004D0190934E01A0934F01B0935001BF9163
:10067000AF919F918F913F912F910F900FBE0F904F
:100680001F90189526E8230F0296A11DB11DD2CF09
:10069000789484B5826084BD84B5816084BD85B55D
:1006A000826085BD85B5816085BD80916E00816069
:1006B00080936E001092810080918100826080930F
:1006C0008100809181008160809381008091800011
:1006D0008160809380008091B10084608093B1003C
:1006E0008091B00081608093B00080917A00846036
:1006F00080937A0080917A00826080937A00809162
:100700007A00816080937A0080917A00806880937B
:100710007A001092C10084E00E943C02E0916801DE
:10072000E23008F085C0E150F0E0EB5AFE4F8489DA
:100730008F5F80680E9436028CE091E00E949301F6
:100740000E946A014B015C0188ECC82ED12CE12C7F
:10075000F12C0E946A01681979098A099B09683E8F
:10076000734081059105A8F321E0C21AD108E10880
:10077000F10888EE880E83E0981EA11CB11CC114FC
:10078000D104E104F10429F781E00E9436028BE3F1
:100790009FE10197F1F760E085E00E94390160E098
:1007A00084E00E94390160E083E00E94390161E049
:1007B00082E00E94390161E081E00E94390160E03D
:1007C0008FE00E94390160E08EE00E94390160E014
:1007D00081E10E943901C0E0D0E085E00E94E200A2
:1007E0006C01909354018093530184E00E94E200D5
:1007F0007C01909352018093510183E00E94E200BA
:10080000CA94CD28B9F484E191E00E94E20261E04B
:1008100080E00E940B0160E082E00E940B0160E03A
:1008200081E00E940B012097C1F20E940000D5CF09
:10083000E1E07ACFEA94EF2859F485E291E00E9452
:10084000E20261E082E00E940B0160E080E0E5CF1F
:10085000019749F786E391E00E94E20261E081E0BE
:100860000E940B0160E082E00E940B0160E080E0EA
:10087000D8CFE5E5F1E01382128284E091E0918324
:1008800080838BE084838FEF85838AE0868389E091
:10089000878388E0808787E0818786E08287138668
:1008A000148615861686178681E00C943C02EE0F9E
:0E08B000FF1F0590F491E02D0994F894FFCFFE
:1008BE0000000000F8028C0090018F0157454C4358
:1008CE004F4D4500434F4E54494E554954592020E3
:1008DE002020202000494E53554C4154494F4E2064
:1008EE00203235305600494E53554C4154494F4EE7
:0808FE00562035303056000091
:00000001FF
